{
  "contractName": "EventManager",
  "abi": [
    {
      "inputs": [
        {
          "internalType": "uint256",
          "name": "",
          "type": "uint256"
        }
      ],
      "name": "events",
      "outputs": [
        {
          "internalType": "uint256",
          "name": "id",
          "type": "uint256"
        },
        {
          "internalType": "address",
          "name": "organizer",
          "type": "address"
        },
        {
          "internalType": "string",
          "name": "title",
          "type": "string"
        },
        {
          "internalType": "string",
          "name": "date",
          "type": "string"
        },
        {
          "internalType": "string",
          "name": "venue",
          "type": "string"
        },
        {
          "internalType": "string",
          "name": "description",
          "type": "string"
        },
        {
          "internalType": "string",
          "name": "category",
          "type": "string"
        },
        {
          "internalType": "string",
          "name": "image",
          "type": "string"
        },
        {
          "internalType": "uint256",
          "name": "ticketPrice",
          "type": "uint256"
        },
        {
          "internalType": "uint256",
          "name": "totalTickets",
          "type": "uint256"
        },
        {
          "internalType": "uint256",
          "name": "ticketsSold",
          "type": "uint256"
        },
        {
          "internalType": "bool",
          "name": "published",
          "type": "bool"
        },
        {
          "internalType": "bool",
          "name": "ended",
          "type": "bool"
        }
      ],
      "stateMutability": "view",
      "type": "function",
      "constant": true
    },
    {
      "inputs": [],
      "name": "nextEventId",
      "outputs": [
        {
          "internalType": "uint256",
          "name": "",
          "type": "uint256"
        }
      ],
      "stateMutability": "view",
      "type": "function",
      "constant": true
    },
    {
      "inputs": [
        {
          "internalType": "address",
          "name": "",
          "type": "address"
        },
        {
          "internalType": "uint256",
          "name": "",
          "type": "uint256"
        }
      ],
      "name": "organizerEvents",
      "outputs": [
        {
          "internalType": "uint256",
          "name": "",
          "type": "uint256"
        }
      ],
      "stateMutability": "view",
      "type": "function",
      "constant": true
    },
    {
      "inputs": [
        {
          "internalType": "string",
          "name": "title",
          "type": "string"
        },
        {
          "internalType": "string",
          "name": "date",
          "type": "string"
        },
        {
          "internalType": "string",
          "name": "venue",
          "type": "string"
        },
        {
          "internalType": "string",
          "name": "description",
          "type": "string"
        },
        {
          "internalType": "string",
          "name": "category",
          "type": "string"
        },
        {
          "internalType": "string",
          "name": "image",
          "type": "string"
        },
        {
          "internalType": "uint256",
          "name": "ticketPrice",
          "type": "uint256"
        },
        {
          "internalType": "uint256",
          "name": "totalTickets",
          "type": "uint256"
        }
      ],
      "name": "createEvent",
      "outputs": [],
      "stateMutability": "nonpayable",
      "type": "function"
    },
    {
      "inputs": [
        {
          "internalType": "address",
          "name": "organizer",
          "type": "address"
        }
      ],
      "name": "getOrganizerEvents",
      "outputs": [
        {
          "internalType": "uint256[]",
          "name": "",
          "type": "uint256[]"
        }
      ],
      "stateMutability": "view",
      "type": "function",
      "constant": true
    },
    {
      "inputs": [
        {
          "internalType": "uint256",
          "name": "eventId",
          "type": "uint256"
        }
      ],
      "name": "getEvent",
      "outputs": [
        {
          "components": [
            {
              "internalType": "uint256",
              "name": "id",
              "type": "uint256"
            },
            {
              "internalType": "address",
              "name": "organizer",
              "type": "address"
            },
            {
              "internalType": "string",
              "name": "title",
              "type": "string"
            },
            {
              "internalType": "string",
              "name": "date",
              "type": "string"
            },
            {
              "internalType": "string",
              "name": "venue",
              "type": "string"
            },
            {
              "internalType": "string",
              "name": "description",
              "type": "string"
            },
            {
              "internalType": "string",
              "name": "category",
              "type": "string"
            },
            {
              "internalType": "string",
              "name": "image",
              "type": "string"
            },
            {
              "internalType": "uint256",
              "name": "ticketPrice",
              "type": "uint256"
            },
            {
              "internalType": "uint256",
              "name": "totalTickets",
              "type": "uint256"
            },
            {
              "internalType": "uint256",
              "name": "ticketsSold",
              "type": "uint256"
            },
            {
              "internalType": "bool",
              "name": "published",
              "type": "bool"
            },
            {
              "internalType": "bool",
              "name": "ended",
              "type": "bool"
            }
          ],
          "internalType": "struct EventManager.Event",
          "name": "",
          "type": "tuple"
        }
      ],
      "stateMutability": "view",
      "type": "function",
      "constant": true
    }
  ],
  "bytecode": "0x6080806040523461001657610fd5908161001b8239f35b5f80fdfe60806040526004361015610011575f80fd5b5f3560e01c80630b79143014610c7c5780636d1884e014610a3c5780639f1e7ca6146101805780639f9d903a14610164578063e4aa47e31461010d5763ff9f59701461005b575f80fd5b3461010957602080600319360112610109576001600160a01b0361007d610f60565b165f526002815260405f20604051908183825491828152019081925f52845f20905f5b868282106100f55786866100b682880383610e0b565b60405192839281840190828552518091526040840192915f5b8281106100de57505050500390f35b8351855286955093810193928101926001016100cf565b8354855290930192600192830192016100a0565b5f80fd5b3461010957604036600319011261010957610126610f60565b6001600160a01b03165f908152600260205260409020805460243591908210156101095760209161015691610f76565b90546040519160031b1c8152f35b34610109575f3660031901126101095760205f54604051908152f35b3461010957610100366003190112610109576004356001600160401b038111610109576101b1903690600401610f0b565b6024356001600160401b038111610109576101d0903690600401610f0b565b906044356001600160401b038111610109576101f0903690600401610f0b565b6064356001600160401b0381116101095761020f903690600401610f0b565b6084356001600160401b0381116101095761022e903690600401610f0b565b9060a4356001600160401b0381116101095761024e903690600401610f0b565b925f54955f198714610a2857600187015f556040519561026d87610def565b87875233602088015260408701526060860152608085015260a084015260c083015260e082015260c43561010082015260e4356101208201525f6101408201525f6101608201525f610180820152815f52600160205260405f20815181556001810160018060a01b036020840151166bffffffffffffffffffffffff60a01b82541617905560408201519283516001600160401b0381116105b4576103156002840154610db7565b601f81116109e4575b506020601f82116001146109795781929394955f9261096e575b50508160011b915f199060031b1c19161760028301555b60608301519283516001600160401b0381116105b4576103726003850154610db7565b601f811161092a575b506020601f82116001146108bf5781929394955f926108b4575b50508160011b915f199060031b1c19161760038401555b60808101519283516001600160401b0381116105b4576103cf6004830154610db7565b601f8111610870575b506020601f82116001146108055781929394955f926107fa575b50508160011b915f199060031b1c19161760048201555b60a08201519283516001600160401b0381116105b45761042c6005840154610db7565b601f81116107b6575b506020601f821160011461074b5781929394955f92610740575b50508160011b915f199060031b1c19161760058301555b60c08301519283516001600160401b0381116105b4576104896006850154610db7565b601f81116106fc575b506020601f82116001146106915781929394955f92610686575b50508160011b915f199060031b1c19161760068401555b60e08101519283516001600160401b0381116105b4576104e66007830154610db7565b601f8111610642575b506020601f82116001146105d3578190600b9495965f926105c8575b50508160011b915f199060031b1c19161760078201555b61010083015160088201556101208301516009820155610140830151600a820155019061016081015115159060ff61ff006101808554930151151560081b1692169061ffff191617179055335f52600260205260405f208054680100000000000000008110156105b45761059b91600182018155610f76565b819291549060031b91821b915f19901b19161790555f80f35b634e487b7160e01b5f52604160045260245ffd5b01519050868061050b565b600783015f5260205f20955f5b601f198416811061062a5750958291600b959697600194601f19811610610612575b505050811b016007820155610522565b01515f1960f88460031b161c19169055868080610602565b828201518855600190970196602092830192016105e0565b600783015f5260205f20601f830160051c81016020841061067f575b601f830160051c820181106106745750506104ef565b5f815560010161065e565b508061065e565b0151905085806104ac565b600685015f5260205f20905f5b601f19841681106106e4575060019394959683601f198116106106cc575b505050811b0160068401556104c3565b01515f1960f88460031b161c191690558580806106bc565b9091602060018192858b01518155019301910161069e565b600685015f5260205f20601f830160051c810160208410610739575b601f830160051c8201811061072e575050610492565b5f8155600101610718565b5080610718565b01519050858061044f565b600584015f5260205f20905f5b601f198416811061079e575060019394959683601f19811610610786575b505050811b016005830155610466565b01515f1960f88460031b161c19169055858080610776565b9091602060018192858b015181550193019101610758565b600584015f5260205f20601f830160051c8101602084106107f3575b601f830160051c820181106107e8575050610435565b5f81556001016107d2565b50806107d2565b0151905085806103f2565b600483015f5260205f20905f5b601f1984168110610858575060019394959683601f19811610610840575b505050811b016004820155610409565b01515f1960f88460031b161c19169055858080610830565b9091602060018192858b015181550193019101610812565b600483015f5260205f20601f830160051c8101602084106108ad575b601f830160051c820181106108a25750506103d8565b5f815560010161088c565b508061088c565b015190508580610395565b600385015f5260205f20905f5b601f1984168110610912575060019394959683601f198116106108fa575b505050811b0160038401556103ac565b01515f1960f88460031b161c191690558580806108ea565b9091602060018192858b0151815501930191016108cc565b600385015f5260205f20601f830160051c810160208410610967575b601f830160051c8201811061095c57505061037b565b5f8155600101610946565b5080610946565b015190508580610338565b600284015f5260205f20905f5b601f19841681106109cc575060019394959683601f198116106109b4575b505050811b01600283015561034f565b01515f1960f88460031b161c191690558580806109a4565b9091602060018192858b015181550193019101610986565b600284015f5260205f20601f830160051c810160208410610a21575b601f830160051c82018110610a1657505061031e565b5f8155600101610a00565b5080610a00565b634e487b7160e01b5f52601160045260245ffd5b34610109576020366003190112610109575f610180604051610a5d81610def565b8281528260208201526060604082015260608082015260606080820152606060a0820152606060c0820152606060e08201528261010082015282610120820152826101408201528261016082015201526004355f52600160205260405f2060ff600b60405192610acc84610def565b8054845260018101546001600160a01b03166020850152610aef60028201610e2c565b6040850152610b0060038201610e2c565b6060850152610b1160048201610e2c565b6080850152610b2260058201610e2c565b60a0850152610b3360068201610e2c565b60c0850152610b4460078201610e2c565b60e085015260088101546101008501526009810154610120850152600a8101546101408501520154818116151561016084015260081c1615156101808201526040518091602082528051602083015260018060a01b036020820151166040830152610180610c3d610bc660408401516101a060608701526101c0860190610ecd565b610c27610c13610bff610beb606088015194601f1995868b83030160808c0152610ecd565b6080880151858a83030160a08b0152610ecd565b60a0870151848983030160c08a0152610ecd565b60c0860151838883030160e0890152610ecd565b9060e08501519086830301610100870152610ecd565b91610100810151610120850152610120810151610140850152610140810151610160850152610160810151151582850152015115156101a08301520390f35b34610109576020366003190112610109576004355f52600160205260405f208054600160a01b600190036001830154169160028101610cba90610e2c565b610cc660038301610e2c565b91610cd360048201610e2c565b92610ce060058301610e2c565b610cec60068401610e2c565b610cf860078501610e2c565b91600885015496600986015494600a87015496600b0154976040519b8c9b8c5260208c01526101a08060408d01528b01610d3191610ecd565b8a810360608c0152610d4291610ecd565b89810360808b0152610d5391610ecd565b88810360a08a0152610d6491610ecd565b87810360c0890152610d7591610ecd565b86810360e0880152610d8691610ecd565b9361010086015261012085015261014084015260ff8116151561016084015260081c60ff1615156101808301520390f35b90600182811c92168015610de5575b6020831014610dd157565b634e487b7160e01b5f52602260045260245ffd5b91607f1691610dc6565b6101a081019081106001600160401b038211176105b457604052565b90601f801991011681019081106001600160401b038211176105b457604052565b9060405191825f825492610e3f84610db7565b9081845260019485811690815f14610eaa5750600114610e6a575b5050610e6892500383610e0b565b565b909391505f52602090815f20935f915b818310610e92575050610e6893508201015f80610e5a565b85548884018501529485019487945091830191610e7a565b915050610e6894506020925060ff191682840152151560051b8201015f80610e5a565b91908251928382525f5b848110610ef7575050825f602080949584010152601f8019910116010190565b602081830181015184830182015201610ed7565b81601f82011215610109578035906001600160401b0382116105b45760405192610f3f601f8401601f191660200185610e0b565b8284526020838301011161010957815f926020809301838601378301015290565b600435906001600160a01b038216820361010957565b8054821015610f8b575f5260205f2001905f90565b634e487b7160e01b5f52603260045260245ffdfea26469706673582212205e242be5338528d4d2884106562eaf3fe268b4cf265f3523f79fd10c3258859a64736f6c63430008140033",
  "immutableReferences": {},
  "source": "// SPDX-License-Identifier: MIT\npragma solidity >=0.4.22 <0.9.0;\n\ncontract EventManager {\n    struct Event {\n        uint256 id;\n        address organizer;\n        string title;\n        string date;\n        string venue;\n        string description;\n        string category;\n        string image;\n        uint256 ticketPrice;\n        uint256 totalTickets;\n        uint256 ticketsSold;\n        bool published;\n        bool ended;\n    }\n\n    uint256 public nextEventId;\n    mapping(uint256 => Event) public events;\n    mapping(address => uint256[]) public organizerEvents;\n\n    function createEvent(\n        string memory title,\n        string memory date,\n        string memory venue,\n        string memory description,\n        string memory category,\n        string memory image,\n        uint256 ticketPrice,\n        uint256 totalTickets\n    ) external {\n        uint256 eventId = nextEventId++;\n\n        events[eventId] = Event({\n            id: eventId,\n            organizer: msg.sender,\n            title: title,\n            date: date,\n            venue: venue,\n            description: description,\n            category: category,\n            image: image,\n            ticketPrice: ticketPrice,\n            totalTickets: totalTickets,\n            ticketsSold: 0,\n            published: false,\n            ended: false\n        });\n\n        organizerEvents[msg.sender].push(eventId);\n    }\n\n    function getOrganizerEvents(\n        address organizer\n    ) external view returns (uint256[] memory) {\n        return organizerEvents[organizer];\n    }\n\n    function getEvent(uint256 eventId) external view returns (Event memory) {\n        return events[eventId];\n    }\n}\n",
  "sourcePath": "/Users/thilan/web-dev/prestiqx/smart-contract/contracts/EventManager.sol",
  "compiler": {
    "name": "solc",
    "version": "0.8.20+commit.a1b79de6.Emscripten.clang"
  },
  "schemaVersion": "3.4.16",
  "updatedAt": "2026-01-15T05:28:55.404Z",
  "networkType": "ethereum",
  "devdoc": {
    "kind": "dev",
    "methods": {},
    "version": 1
  },
  "userdoc": {
    "kind": "user",
    "methods": {},
    "version": 1
  }
}