{
  "contractName": "EventManager",
  "abi": [
    {
      "inputs": [
        {
          "internalType": "address",
          "name": "_ticketNFT",
          "type": "address"
        },
        {
          "internalType": "address",
          "name": "_platformTreasury",
          "type": "address"
        }
      ],
      "stateMutability": "nonpayable",
      "type": "constructor"
    },
    {
      "anonymous": false,
      "inputs": [
        {
          "indexed": true,
          "internalType": "address",
          "name": "previousOwner",
          "type": "address"
        },
        {
          "indexed": true,
          "internalType": "address",
          "name": "newOwner",
          "type": "address"
        }
      ],
      "name": "OwnershipTransferred",
      "type": "event"
    },
    {
      "inputs": [
        {
          "internalType": "uint256",
          "name": "",
          "type": "uint256"
        }
      ],
      "name": "allEvents",
      "outputs": [
        {
          "internalType": "uint256",
          "name": "",
          "type": "uint256"
        }
      ],
      "stateMutability": "view",
      "type": "function",
      "constant": true
    },
    {
      "inputs": [
        {
          "internalType": "uint256",
          "name": "",
          "type": "uint256"
        },
        {
          "internalType": "uint256",
          "name": "",
          "type": "uint256"
        }
      ],
      "name": "eventTickets",
      "outputs": [
        {
          "internalType": "uint256",
          "name": "",
          "type": "uint256"
        }
      ],
      "stateMutability": "view",
      "type": "function",
      "constant": true
    },
    {
      "inputs": [
        {
          "internalType": "uint256",
          "name": "",
          "type": "uint256"
        }
      ],
      "name": "events",
      "outputs": [
        {
          "internalType": "uint256",
          "name": "id",
          "type": "uint256"
        },
        {
          "internalType": "address",
          "name": "organizer",
          "type": "address"
        },
        {
          "internalType": "string",
          "name": "title",
          "type": "string"
        },
        {
          "internalType": "string",
          "name": "date",
          "type": "string"
        },
        {
          "internalType": "string",
          "name": "venue",
          "type": "string"
        },
        {
          "internalType": "string",
          "name": "description",
          "type": "string"
        },
        {
          "internalType": "string",
          "name": "category",
          "type": "string"
        },
        {
          "internalType": "string",
          "name": "image",
          "type": "string"
        },
        {
          "internalType": "uint256",
          "name": "ticketPrice",
          "type": "uint256"
        },
        {
          "internalType": "uint256",
          "name": "totalTickets",
          "type": "uint256"
        },
        {
          "internalType": "uint256",
          "name": "ticketsSold",
          "type": "uint256"
        },
        {
          "internalType": "bool",
          "name": "published",
          "type": "bool"
        },
        {
          "internalType": "bool",
          "name": "ended",
          "type": "bool"
        }
      ],
      "stateMutability": "view",
      "type": "function",
      "constant": true
    },
    {
      "inputs": [],
      "name": "nextEventId",
      "outputs": [
        {
          "internalType": "uint256",
          "name": "",
          "type": "uint256"
        }
      ],
      "stateMutability": "view",
      "type": "function",
      "constant": true
    },
    {
      "inputs": [
        {
          "internalType": "address",
          "name": "",
          "type": "address"
        },
        {
          "internalType": "uint256",
          "name": "",
          "type": "uint256"
        }
      ],
      "name": "organizerEvents",
      "outputs": [
        {
          "internalType": "uint256",
          "name": "",
          "type": "uint256"
        }
      ],
      "stateMutability": "view",
      "type": "function",
      "constant": true
    },
    {
      "inputs": [],
      "name": "owner",
      "outputs": [
        {
          "internalType": "address",
          "name": "",
          "type": "address"
        }
      ],
      "stateMutability": "view",
      "type": "function",
      "constant": true
    },
    {
      "inputs": [
        {
          "internalType": "address",
          "name": "",
          "type": "address"
        }
      ],
      "name": "pendingWithdrawals",
      "outputs": [
        {
          "internalType": "uint256",
          "name": "",
          "type": "uint256"
        }
      ],
      "stateMutability": "view",
      "type": "function",
      "constant": true
    },
    {
      "inputs": [],
      "name": "platformFeeBps",
      "outputs": [
        {
          "internalType": "uint256",
          "name": "",
          "type": "uint256"
        }
      ],
      "stateMutability": "view",
      "type": "function",
      "constant": true
    },
    {
      "inputs": [],
      "name": "platformTreasury",
      "outputs": [
        {
          "internalType": "address",
          "name": "",
          "type": "address"
        }
      ],
      "stateMutability": "view",
      "type": "function",
      "constant": true
    },
    {
      "inputs": [],
      "name": "renounceOwnership",
      "outputs": [],
      "stateMutability": "nonpayable",
      "type": "function"
    },
    {
      "inputs": [],
      "name": "ticketNFT",
      "outputs": [
        {
          "internalType": "contract TicketNFT",
          "name": "",
          "type": "address"
        }
      ],
      "stateMutability": "view",
      "type": "function",
      "constant": true
    },
    {
      "inputs": [
        {
          "internalType": "uint256",
          "name": "",
          "type": "uint256"
        }
      ],
      "name": "ticketToEvent",
      "outputs": [
        {
          "internalType": "uint256",
          "name": "",
          "type": "uint256"
        }
      ],
      "stateMutability": "view",
      "type": "function",
      "constant": true
    },
    {
      "inputs": [
        {
          "internalType": "address",
          "name": "newOwner",
          "type": "address"
        }
      ],
      "name": "transferOwnership",
      "outputs": [],
      "stateMutability": "nonpayable",
      "type": "function"
    },
    {
      "inputs": [
        {
          "internalType": "string",
          "name": "title",
          "type": "string"
        },
        {
          "internalType": "string",
          "name": "date",
          "type": "string"
        },
        {
          "internalType": "string",
          "name": "venue",
          "type": "string"
        },
        {
          "internalType": "string",
          "name": "description",
          "type": "string"
        },
        {
          "internalType": "string",
          "name": "category",
          "type": "string"
        },
        {
          "internalType": "string",
          "name": "image",
          "type": "string"
        },
        {
          "internalType": "uint256",
          "name": "ticketPrice",
          "type": "uint256"
        },
        {
          "internalType": "uint256",
          "name": "totalTickets",
          "type": "uint256"
        }
      ],
      "name": "createEvent",
      "outputs": [],
      "stateMutability": "nonpayable",
      "type": "function"
    },
    {
      "inputs": [
        {
          "internalType": "uint256",
          "name": "eventId",
          "type": "uint256"
        },
        {
          "internalType": "string",
          "name": "tokenURI",
          "type": "string"
        }
      ],
      "name": "buyTicket",
      "outputs": [],
      "stateMutability": "payable",
      "type": "function",
      "payable": true
    },
    {
      "inputs": [],
      "name": "withdraw",
      "outputs": [],
      "stateMutability": "nonpayable",
      "type": "function"
    },
    {
      "inputs": [
        {
          "internalType": "address",
          "name": "organizer",
          "type": "address"
        }
      ],
      "name": "getOrganizerEvents",
      "outputs": [
        {
          "internalType": "uint256[]",
          "name": "",
          "type": "uint256[]"
        }
      ],
      "stateMutability": "view",
      "type": "function",
      "constant": true
    },
    {
      "inputs": [],
      "name": "getAllEvents",
      "outputs": [
        {
          "internalType": "uint256[]",
          "name": "",
          "type": "uint256[]"
        }
      ],
      "stateMutability": "view",
      "type": "function",
      "constant": true
    },
    {
      "inputs": [
        {
          "internalType": "uint256",
          "name": "eventId",
          "type": "uint256"
        }
      ],
      "name": "getEvent",
      "outputs": [
        {
          "components": [
            {
              "internalType": "uint256",
              "name": "id",
              "type": "uint256"
            },
            {
              "internalType": "address",
              "name": "organizer",
              "type": "address"
            },
            {
              "internalType": "string",
              "name": "title",
              "type": "string"
            },
            {
              "internalType": "string",
              "name": "date",
              "type": "string"
            },
            {
              "internalType": "string",
              "name": "venue",
              "type": "string"
            },
            {
              "internalType": "string",
              "name": "description",
              "type": "string"
            },
            {
              "internalType": "string",
              "name": "category",
              "type": "string"
            },
            {
              "internalType": "string",
              "name": "image",
              "type": "string"
            },
            {
              "internalType": "uint256",
              "name": "ticketPrice",
              "type": "uint256"
            },
            {
              "internalType": "uint256",
              "name": "totalTickets",
              "type": "uint256"
            },
            {
              "internalType": "uint256",
              "name": "ticketsSold",
              "type": "uint256"
            },
            {
              "internalType": "bool",
              "name": "published",
              "type": "bool"
            },
            {
              "internalType": "bool",
              "name": "ended",
              "type": "bool"
            }
          ],
          "internalType": "struct EventManager.Event",
          "name": "",
          "type": "tuple"
        }
      ],
      "stateMutability": "view",
      "type": "function",
      "constant": true
    },
    {
      "inputs": [
        {
          "internalType": "uint256",
          "name": "eventId",
          "type": "uint256"
        }
      ],
      "name": "endEvent",
      "outputs": [],
      "stateMutability": "nonpayable",
      "type": "function"
    }
  ],
  "bytecode": "0x6080346100cc57601f6118d438819003918201601f19168301916001600160401b038311848410176100d05780849260409485528339810103126100cc57610052602061004b836100e4565b92016100e4565b5f8054336001600160a01b0319808316821784556040519590946001600160a01b03949093859391908416907f8be0079c531659141344cd1fd0a4f28419497f9722a3daafe3b4186f6b6457e09080a3600180556101f4600a55168360025416176002551690600b541617600b556117db90816100f98239f35b5f80fd5b634e487b7160e01b5f52604160045260245ffd5b51906001600160a01b03821682036100cc5756fe60806040526004361015610011575f80fd5b5f3560e01c80630b7914301461137e57806322dcd13e14611361578063330a347b146113265780633bec5cff146112d65780633ccfd60b1461125a5780636d1884e01461101a578063715018a614610fc3578063779cea7714610f8c5780638da5cb5b14610f655780639afb93cb14610d4d5780639f1e7ca6146103e05780639f9d903a146103c3578063b393391b1461039b578063c27a500d14610323578063e138818c146102fb578063e4aa47e3146102a4578063f2fde38b146101de578063f3f43703146101a6578063f6ac04da1461017c5763ff9f5970146100f5575f80fd5b3461017857602080600319360112610178576001600160a01b036101176116b3565b165f526006815260405f209060405190818184549182815201935f52815f20915f905b8282106101615761015d856101518189038261150f565b60405191829182611679565b0390f35b83548652948501946001938401939091019061013a565b5f80fd5b34610178576020366003190112610178576004355f526008602052602060405f2054604051908152f35b34610178576020366003190112610178576001600160a01b036101c76116b3565b165f526009602052602060405f2054604051908152f35b34610178576020366003190112610178576101f76116b3565b6101ff6116c9565b6001600160a01b03908116908115610250575f54826bffffffffffffffffffffffff60a01b8216175f55167f8be0079c531659141344cd1fd0a4f28419497f9722a3daafe3b4186f6b6457e05f80a3005b60405162461bcd60e51b815260206004820152602660248201527f4f776e61626c653a206e6577206f776e657220697320746865207a65726f206160448201526564647265737360d01b6064820152608490fd5b34610178576040366003190112610178576102bd6116b3565b6001600160a01b03165f90815260066020526040902080546024359190821015610178576020916102ed9161160f565b90546040519160031b1c8152f35b34610178575f36600319011261017857600b546040516001600160a01b039091168152602090f35b34610178575f36600319011261017857604051806005549182815260208091019260055f527f036b6384b5eca791c62761152d0c79bb0604c104a5fb6f4eb0703f3154bb3db0915f905b8282106103845761015d856101518189038261150f565b83548652948501946001938401939091019061036d565b34610178575f366003190112610178576002546040516001600160a01b039091168152602090f35b34610178575f366003190112610178576020600354604051908152f35b3461017857610100366003190112610178576004356001600160401b03811161017857610411903690600401611624565b6024356001600160401b03811161017857610430903690600401611624565b906044356001600160401b03811161017857610450903690600401611624565b6064356001600160401b0381116101785761046f903690600401611624565b6084356001600160401b0381116101785761048e903690600401611624565b9060a4356001600160401b038111610178576104ae903690600401611624565b9260c43515610d1b5760e43515610ce957600354956104cc87611720565b600355604051956104dc876114f3565b87875233602088015260408701526060860152608085015260a084015260c083015260e082015260c43561010082015260e4356101208201525f61014082015260016101608201525f610180820152815f52600460205260405f20815181556001810160018060a01b036020840151166bffffffffffffffffffffffff60a01b82541617905560408201519283516001600160401b0381116108755761058560028401546114bb565b601f8111610ca5575b506020601f8211600114610c3a5781929394955f92610c2f575b50508160011b915f199060031b1c19161760028301555b60608301519283516001600160401b038111610875576105e260038501546114bb565b601f8111610beb575b506020601f8211600114610b805781929394955f92610b75575b50508160011b915f199060031b1c19161760038401555b60808101519283516001600160401b0381116108755761063f60048301546114bb565b601f8111610b31575b506020601f8211600114610ac65781929394955f92610abb575b50508160011b915f199060031b1c19161760048201555b60a08201519283516001600160401b0381116108755761069c60058401546114bb565b601f8111610a77575b506020601f8211600114610a0c5781929394955f92610a01575b50508160011b915f199060031b1c19161760058301555b60c08301519283516001600160401b038111610875576106f960068501546114bb565b601f81116109bd575b506020601f82116001146109525781929394955f92610947575b50508160011b915f199060031b1c19161760068401555b60e08101519283516001600160401b0381116108755761075660078301546114bb565b601f8111610903575b506020601f8211600114610894578190600b9495965f92610889575b50508160011b915f199060031b1c19161760078201555b61010083015160088201556101208301516009820155610140830151600a820155019061016081015115159060ff61ff006101808554930151151560081b1692169061ffff191617179055335f52600660205260405f208054906801000000000000000091828110156108755761080e9160018201815561160f565b81549060031b9084821b915f19901b191617905560055490811015610875576001810180600555811015610861577f036b6384b5eca791c62761152d0c79bb0604c104a5fb6f4eb0703f3154bb3db00155005b634e487b7160e01b5f52603260045260245ffd5b634e487b7160e01b5f52604160045260245ffd5b01519050868061077b565b600783015f5260205f20955f5b601f19841681106108eb5750958291600b959697600194601f198116106108d3575b505050811b016007820155610792565b01515f1960f88460031b161c191690558680806108c3565b828201518855600190970196602092830192016108a1565b600783015f5260205f20601f830160051c810160208410610940575b601f830160051c8201811061093557505061075f565b5f815560010161091f565b508061091f565b01519050858061071c565b600685015f5260205f20905f5b601f19841681106109a5575060019394959683601f1981161061098d575b505050811b016006840155610733565b01515f1960f88460031b161c1916905585808061097d565b9091602060018192858b01518155019301910161095f565b600685015f5260205f20601f830160051c8101602084106109fa575b601f830160051c820181106109ef575050610702565b5f81556001016109d9565b50806109d9565b0151905085806106bf565b600584015f5260205f20905f5b601f1984168110610a5f575060019394959683601f19811610610a47575b505050811b0160058301556106d6565b01515f1960f88460031b161c19169055858080610a37565b9091602060018192858b015181550193019101610a19565b600584015f5260205f20601f830160051c810160208410610ab4575b601f830160051c82018110610aa95750506106a5565b5f8155600101610a93565b5080610a93565b015190508580610662565b600483015f5260205f20905f5b601f1984168110610b19575060019394959683601f19811610610b01575b505050811b016004820155610679565b01515f1960f88460031b161c19169055858080610af1565b9091602060018192858b015181550193019101610ad3565b600483015f5260205f20601f830160051c810160208410610b6e575b601f830160051c82018110610b63575050610648565b5f8155600101610b4d565b5080610b4d565b015190508580610605565b600385015f5260205f20905f5b601f1984168110610bd3575060019394959683601f19811610610bbb575b505050811b01600384015561061c565b01515f1960f88460031b161c19169055858080610bab565b9091602060018192858b015181550193019101610b8d565b600385015f5260205f20601f830160051c810160208410610c28575b601f830160051c82018110610c1d5750506105eb565b5f8155600101610c07565b5080610c07565b0151905085806105a8565b600284015f5260205f20905f5b601f1984168110610c8d575060019394959683601f19811610610c75575b505050811b0160028301556105bf565b01515f1960f88460031b161c19169055858080610c65565b9091602060018192858b015181550193019101610c47565b600284015f5260205f20601f830160051c810160208410610ce2575b601f830160051c82018110610cd757505061058e565b5f8155600101610cc1565b5080610cc1565b60405162461bcd60e51b815260206004820152600a6024820152694e4f5f5449434b45545360b01b6044820152606490fd5b60405162461bcd60e51b815260206004820152600a60248201526950524943455f5a45524f60b01b6044820152606490fd5b604036600319011261017857602480356001600160401b03811161017857610d79903690600401611624565b610d8161174f565b6004355f526020916004835260405f209260ff600b85015460081c16610f3557600a840192835460098601541115610f075760088501543403610ed8575f82610dfa60018060a01b03938460025416906040519485809481936314e2210b60e21b835233600484015260408c84015260448301906115d1565b03925af1908115610ecd578391610ea4575b5050600a54803402903482041434151715610e915761271090049283340390348211610e7e575081600160099596970154165f52838352610e5260405f20918254611742565b9055600b54165f5252610e6a60405f20918254611742565b9055610e768154611720565b905560018055005b634e487b7160e01b5f9081526011600452fd5b83634e487b7160e01b5f5260116004525ffd5b813d8311610ec6575b610eb7818361150f565b81010312610178578186610e0c565b503d610ead565b6040513d5f823e3d90fd5b5060096064926040519262461bcd60e51b84526004840152820152684241445f505249434560b81b6044820152fd5b5060086064926040519262461bcd60e51b845260048401528201526714d3d31117d3d55560c21b6044820152fd5b600b6064926040519262461bcd60e51b845260048401528201526a115591539517d15391115160aa1b6044820152fd5b34610178575f366003190112610178575f546040516001600160a01b039091168152602090f35b34610178576040366003190112610178576024356004355f52600760205260405f208054821015610178576020916102ed9161160f565b34610178575f36600319011261017857610fdb6116c9565b5f80546001600160a01b0319811682556001600160a01b03167f8be0079c531659141344cd1fd0a4f28419497f9722a3daafe3b4186f6b6457e08280a3005b34610178576020366003190112610178575f61018060405161103b816114f3565b8281528260208201526060604082015260608082015260606080820152606060a0820152606060c0820152606060e08201528261010082015282610120820152826101408201528261016082015201526004355f52600460205260405f2060ff600b604051926110aa846114f3565b8054845260018101546001600160a01b031660208501526110cd60028201611530565b60408501526110de60038201611530565b60608501526110ef60048201611530565b608085015261110060058201611530565b60a085015261111160068201611530565b60c085015261112260078201611530565b60e085015260088101546101008501526009810154610120850152600a8101546101408501520154818116151561016084015260081c1615156101808201526040518091602082528051602083015260018060a01b03602082015116604083015261018061121b6111a460408401516101a060608701526101c08601906115d1565b6112056111f16111dd6111c9606088015194601f1995868b83030160808c01526115d1565b6080880151858a83030160a08b01526115d1565b60a0870151848983030160c08a01526115d1565b60c0860151838883030160e08901526115d1565b9060e085015190868303016101008701526115d1565b91610100810151610120850152610120810151610140850152610140810151610160850152610160810151151582850152015115156101a08301520390f35b34610178575f3660031901126101785761127261174f565b335f52600960205260405f205480156112a6575f8080809333825260096020528160408120553382f115610ecd5760018055005b60405162461bcd60e51b81526020600482015260086024820152674e4f5f46554e445360c01b6044820152606490fd5b34610178576020366003190112610178576004356005548110156101785760209060055f527f036b6384b5eca791c62761152d0c79bb0604c104a5fb6f4eb0703f3154bb3db00154604051908152f35b346101785760203660031901126101785761133f6116c9565b6004355f526004602052600b60405f200161010061ff00198254161790555f80f35b34610178575f366003190112610178576020600a54604051908152f35b3461017857602036600319011261017857600480355f90815260209190915260409020805460018201546001600160a01b0316916113be60028201611530565b6113ca60038301611530565b916113d760048201611530565b926113e460058301611530565b6113f060068401611530565b6113fc60078501611530565b91600885015496600986015494600a87015496600b0154976040519b8c9b8c5260208c01526101a08060408d01528b01611435916115d1565b8a810360608c0152611446916115d1565b89810360808b0152611457916115d1565b88810360a08a0152611468916115d1565b87810360c0890152611479916115d1565b86810360e088015261148a916115d1565b9361010086015261012085015261014084015260ff8116151561016084015260081c60ff1615156101808301520390f35b90600182811c921680156114e9575b60208310146114d557565b634e487b7160e01b5f52602260045260245ffd5b91607f16916114ca565b6101a081019081106001600160401b0382111761087557604052565b90601f801991011681019081106001600160401b0382111761087557604052565b9060405191825f825492611543846114bb565b9081845260019485811690815f146115ae575060011461156e575b505061156c9250038361150f565b565b909391505f52602090815f20935f915b81831061159657505061156c93508201015f8061155e565b8554888401850152948501948794509183019161157e565b91505061156c94506020925060ff191682840152151560051b8201015f8061155e565b91908251928382525f5b8481106115fb575050825f602080949584010152601f8019910116010190565b6020818301810151848301820152016115db565b8054821015610861575f5260205f2001905f90565b81601f82011215610178578035906001600160401b0382116108755760405192611658601f8401601f19166020018561150f565b8284526020838301011161017857815f926020809301838601378301015290565b602090816040818301928281528551809452019301915f5b82811061169f575050505090565b835185529381019392810192600101611691565b600435906001600160a01b038216820361017857565b5f546001600160a01b031633036116dc57565b606460405162461bcd60e51b815260206004820152602060248201527f4f776e61626c653a2063616c6c6572206973206e6f7420746865206f776e65726044820152fd5b5f19811461172e5760010190565b634e487b7160e01b5f52601160045260245ffd5b9190820180921161172e57565b600260015414611760576002600155565b60405162461bcd60e51b815260206004820152601f60248201527f5265656e7472616e637947756172643a207265656e7472616e742063616c6c006044820152606490fdfea2646970667358221220de55705f7deff11db9af4545ca499c3264d1f83e58a47df8bed3889ecd694f1d64736f6c63430008140033",
  "immutableReferences": {},
  "source": "// SPDX-License-Identifier: MIT\npragma solidity ^0.8.20;\n\nimport \"@openzeppelin/contracts/access/Ownable.sol\";\nimport \"@openzeppelin/contracts/security/ReentrancyGuard.sol\";\nimport \"./TicketNFT.sol\";\n\ncontract EventManager is Ownable, ReentrancyGuard {\n    TicketNFT public ticketNFT;\n    uint256 public nextEventId;\n\n    struct Event {\n        uint256 id;\n        address organizer;\n        string title;\n        string date;\n        string venue;\n        string description;\n        string category;\n        string image;\n        uint256 ticketPrice;\n        uint256 totalTickets;\n        uint256 ticketsSold;\n        bool published;\n        bool ended;\n    }\n\n    mapping(uint256 => Event) public events;\n\n    uint256[] public allEvents;\n    mapping(address => uint256[]) public organizerEvents;\n\n    mapping(uint256 => uint256[]) public eventTickets; // ticket IDs per event\n    mapping(uint256 => uint256) public ticketToEvent; // tokenId => eventId\n\n    mapping(address => uint256) public pendingWithdrawals;\n\n    uint256 public platformFeeBps = 500; // 5%\n    address public platformTreasury;\n\n    constructor(address _ticketNFT, address _platformTreasury) {\n        ticketNFT = TicketNFT(_ticketNFT);\n        platformTreasury = _platformTreasury;\n    }\n\n    // ------------------------\n    // Create Event\n    // ------------------------\n    function createEvent(\n        string memory title,\n        string memory date,\n        string memory venue,\n        string memory description,\n        string memory category,\n        string memory image,\n        uint256 ticketPrice,\n        uint256 totalTickets\n    ) external {\n        require(ticketPrice > 0, \"PRICE_ZERO\");\n        require(totalTickets > 0, \"NO_TICKETS\");\n\n        uint256 eventId = nextEventId++;\n\n        events[eventId] = Event({\n            id: eventId,\n            organizer: msg.sender,\n            title: title,\n            date: date,\n            venue: venue,\n            description: description,\n            category: category,\n            image: image,\n            ticketPrice: ticketPrice,\n            totalTickets: totalTickets,\n            ticketsSold: 0,\n            published: true,\n            ended: false\n        });\n\n        organizerEvents[msg.sender].push(eventId);\n        allEvents.push(eventId);\n    }\n\n    // ------------------------\n    // Buy Ticket\n    // ------------------------\n    function buyTicket(\n        uint256 eventId,\n        string memory tokenURI\n    ) external payable nonReentrant {\n        Event storage e = events[eventId];\n\n        require(!e.ended, \"EVENT_ENDED\");\n        require(e.ticketsSold < e.totalTickets, \"SOLD_OUT\");\n        require(msg.value == e.ticketPrice, \"BAD_PRICE\");\n\n        // Mint NFT directly to buyer\n        ticketNFT.mintTicket(msg.sender, tokenURI);\n\n        // ---- Payment split ----\n        uint256 fee = (msg.value * platformFeeBps) / 10_000;\n        uint256 organizerAmount = msg.value - fee;\n\n        pendingWithdrawals[e.organizer] += organizerAmount;\n        pendingWithdrawals[platformTreasury] += fee;\n\n        e.ticketsSold++;\n    }\n\n    function withdraw() external nonReentrant {\n        uint256 amount = pendingWithdrawals[msg.sender];\n        require(amount > 0, \"NO_FUNDS\");\n\n        pendingWithdrawals[msg.sender] = 0;\n        payable(msg.sender).transfer(amount);\n    }\n\n    function getOrganizerEvents(\n        address organizer\n    ) external view returns (uint256[] memory) {\n        return organizerEvents[organizer];\n    }\n    function getAllEvents() external view returns (uint256[] memory) {\n        return allEvents;\n    }\n\n    function getEvent(uint256 eventId) external view returns (Event memory) {\n        return events[eventId];\n    }\n\n    // ------------------------\n    // Admin Functions\n    // ------------------------\n\n    function endEvent(uint256 eventId) external onlyOwner {\n        events[eventId].ended = true;\n    }\n}\n",
  "sourcePath": "/Users/thilan/web-dev/prestiqx/smart-contract/contracts/EventManager.sol",
  "compiler": {
    "name": "solc",
    "version": "0.8.20+commit.a1b79de6.Emscripten.clang"
  },
  "schemaVersion": "3.4.16",
  "updatedAt": "2026-01-15T16:43:28.631Z",
  "networkType": "ethereum",
  "devdoc": {
    "kind": "dev",
    "methods": {
      "owner()": {
        "details": "Returns the address of the current owner."
      },
      "renounceOwnership()": {
        "details": "Leaves the contract without owner. It will not be possible to call `onlyOwner` functions. Can only be called by the current owner. NOTE: Renouncing ownership will leave the contract without an owner, thereby disabling any functionality that is only available to the owner."
      },
      "transferOwnership(address)": {
        "details": "Transfers ownership of the contract to a new account (`newOwner`). Can only be called by the current owner."
      }
    },
    "version": 1
  },
  "userdoc": {
    "kind": "user",
    "methods": {},
    "version": 1
  }
}