{
  "contractName": "EventManager",
  "abi": [
    {
      "inputs": [
        {
          "internalType": "uint256",
          "name": "",
          "type": "uint256"
        }
      ],
      "name": "allEvents",
      "outputs": [
        {
          "internalType": "uint256",
          "name": "",
          "type": "uint256"
        }
      ],
      "stateMutability": "view",
      "type": "function",
      "constant": true
    },
    {
      "inputs": [
        {
          "internalType": "uint256",
          "name": "",
          "type": "uint256"
        }
      ],
      "name": "events",
      "outputs": [
        {
          "internalType": "uint256",
          "name": "id",
          "type": "uint256"
        },
        {
          "internalType": "address",
          "name": "organizer",
          "type": "address"
        },
        {
          "internalType": "string",
          "name": "title",
          "type": "string"
        },
        {
          "internalType": "string",
          "name": "date",
          "type": "string"
        },
        {
          "internalType": "string",
          "name": "venue",
          "type": "string"
        },
        {
          "internalType": "string",
          "name": "description",
          "type": "string"
        },
        {
          "internalType": "string",
          "name": "category",
          "type": "string"
        },
        {
          "internalType": "string",
          "name": "image",
          "type": "string"
        },
        {
          "internalType": "uint256",
          "name": "ticketPrice",
          "type": "uint256"
        },
        {
          "internalType": "uint256",
          "name": "totalTickets",
          "type": "uint256"
        },
        {
          "internalType": "uint256",
          "name": "ticketsSold",
          "type": "uint256"
        },
        {
          "internalType": "bool",
          "name": "published",
          "type": "bool"
        },
        {
          "internalType": "bool",
          "name": "ended",
          "type": "bool"
        }
      ],
      "stateMutability": "view",
      "type": "function",
      "constant": true
    },
    {
      "inputs": [],
      "name": "nextEventId",
      "outputs": [
        {
          "internalType": "uint256",
          "name": "",
          "type": "uint256"
        }
      ],
      "stateMutability": "view",
      "type": "function",
      "constant": true
    },
    {
      "inputs": [
        {
          "internalType": "address",
          "name": "",
          "type": "address"
        },
        {
          "internalType": "uint256",
          "name": "",
          "type": "uint256"
        }
      ],
      "name": "organizerEvents",
      "outputs": [
        {
          "internalType": "uint256",
          "name": "",
          "type": "uint256"
        }
      ],
      "stateMutability": "view",
      "type": "function",
      "constant": true
    },
    {
      "inputs": [
        {
          "internalType": "string",
          "name": "title",
          "type": "string"
        },
        {
          "internalType": "string",
          "name": "date",
          "type": "string"
        },
        {
          "internalType": "string",
          "name": "venue",
          "type": "string"
        },
        {
          "internalType": "string",
          "name": "description",
          "type": "string"
        },
        {
          "internalType": "string",
          "name": "category",
          "type": "string"
        },
        {
          "internalType": "string",
          "name": "image",
          "type": "string"
        },
        {
          "internalType": "uint256",
          "name": "ticketPrice",
          "type": "uint256"
        },
        {
          "internalType": "uint256",
          "name": "totalTickets",
          "type": "uint256"
        }
      ],
      "name": "createEvent",
      "outputs": [],
      "stateMutability": "nonpayable",
      "type": "function"
    },
    {
      "inputs": [
        {
          "internalType": "address",
          "name": "organizer",
          "type": "address"
        }
      ],
      "name": "getOrganizerEvents",
      "outputs": [
        {
          "internalType": "uint256[]",
          "name": "",
          "type": "uint256[]"
        }
      ],
      "stateMutability": "view",
      "type": "function",
      "constant": true
    },
    {
      "inputs": [],
      "name": "getAllEvents",
      "outputs": [
        {
          "internalType": "uint256[]",
          "name": "",
          "type": "uint256[]"
        }
      ],
      "stateMutability": "view",
      "type": "function",
      "constant": true
    },
    {
      "inputs": [
        {
          "internalType": "uint256",
          "name": "eventId",
          "type": "uint256"
        }
      ],
      "name": "getEvent",
      "outputs": [
        {
          "components": [
            {
              "internalType": "uint256",
              "name": "id",
              "type": "uint256"
            },
            {
              "internalType": "address",
              "name": "organizer",
              "type": "address"
            },
            {
              "internalType": "string",
              "name": "title",
              "type": "string"
            },
            {
              "internalType": "string",
              "name": "date",
              "type": "string"
            },
            {
              "internalType": "string",
              "name": "venue",
              "type": "string"
            },
            {
              "internalType": "string",
              "name": "description",
              "type": "string"
            },
            {
              "internalType": "string",
              "name": "category",
              "type": "string"
            },
            {
              "internalType": "string",
              "name": "image",
              "type": "string"
            },
            {
              "internalType": "uint256",
              "name": "ticketPrice",
              "type": "uint256"
            },
            {
              "internalType": "uint256",
              "name": "totalTickets",
              "type": "uint256"
            },
            {
              "internalType": "uint256",
              "name": "ticketsSold",
              "type": "uint256"
            },
            {
              "internalType": "bool",
              "name": "published",
              "type": "bool"
            },
            {
              "internalType": "bool",
              "name": "ended",
              "type": "bool"
            }
          ],
          "internalType": "struct EventManager.Event",
          "name": "",
          "type": "tuple"
        }
      ],
      "stateMutability": "view",
      "type": "function",
      "constant": true
    }
  ],
  "bytecode": "0x6080806040523461001657611100908161001b8239f35b5f80fdfe60806040526004361015610011575f80fd5b5f3560e01c80630b79143014610d815780633bec5cff14610d315780636d1884e014610af15780639f1e7ca6146101e45780639f9d903a146101c8578063c27a500d14610150578063e4aa47e3146100f85763ff9f597014610071575f80fd5b346100f4576020806003193601126100f4576001600160a01b036100936110b4565b165f526003815260405f209060405190818184549182815201935f52815f20915f905b8282106100dd576100d9856100cd81890382610f10565b6040519182918261107a565b0390f35b8354865294850194600193840193909101906100b6565b5f80fd5b346100f45760403660031901126100f4576101116110b4565b6001600160a01b03165f908152600360205260409020805460243591908210156100f45760209161014191611010565b90549060031b1c604051908152f35b346100f4575f3660031901126100f457604051806002549182815260208091019260025f527f405787fa12a823e0f2b7631cc41b3ba8828b3321ca811111fa75cd3aa3bb5ace915f905b8282106101b1576100d9856100cd81890382610f10565b83548652948501946001938401939091019061019a565b346100f4575f3660031901126100f45760205f54604051908152f35b346100f4576101003660031901126100f4576004356001600160401b0381116100f457610215903690600401611025565b6024356001600160401b0381116100f457610234903690600401611025565b906044356001600160401b0381116100f457610254903690600401611025565b6064356001600160401b0381116100f457610273903690600401611025565b6084356001600160401b0381116100f457610292903690600401611025565b9060a4356001600160401b0381116100f4576102b2903690600401611025565b925f54955f198714610add57600187015f55604051956102d187610ef4565b87875233602088015260408701526060860152608085015260a084015260c083015260e082015260c43561010082015260e4356101208201525f6101408201525f6101608201525f610180820152815f52600160205260405f20815181556001810160018060a01b036020840151166bffffffffffffffffffffffff60a01b82541617905560408201519283516001600160401b038111610669576103796002840154610ebc565b601f8111610a99575b506020601f8211600114610a2e5781929394955f92610a23575b50508160011b915f199060031b1c19161760028301555b60608301519283516001600160401b038111610669576103d66003850154610ebc565b601f81116109df575b506020601f82116001146109745781929394955f92610969575b50508160011b915f199060031b1c19161760038401555b60808101519283516001600160401b038111610669576104336004830154610ebc565b601f8111610925575b506020601f82116001146108ba5781929394955f926108af575b50508160011b915f199060031b1c19161760048201555b60a08201519283516001600160401b038111610669576104906005840154610ebc565b601f811161086b575b506020601f82116001146108005781929394955f926107f5575b50508160011b915f199060031b1c19161760058301555b60c08301519283516001600160401b038111610669576104ed6006850154610ebc565b601f81116107b1575b506020601f82116001146107465781929394955f9261073b575b50508160011b915f199060031b1c19161760068401555b60e08101519283516001600160401b0381116106695761054a6007830154610ebc565b601f81116106f7575b506020601f8211600114610688578190600b9495965f9261067d575b50508160011b915f199060031b1c19161760078201555b61010083015160088201556101208301516009820155610140830151600a820155019061016081015115159060ff61ff006101808554930151151560081b1692169061ffff191617179055335f52600360205260405f208054906801000000000000000091828110156106695761060291600182018155611010565b81549060031b9084821b915f19901b191617905560025490811015610669576001810180600255811015610655577f405787fa12a823e0f2b7631cc41b3ba8828b3321ca811111fa75cd3aa3bb5ace0155005b634e487b7160e01b5f52603260045260245ffd5b634e487b7160e01b5f52604160045260245ffd5b01519050868061056f565b600783015f5260205f20955f5b601f19841681106106df5750958291600b959697600194601f198116106106c7575b505050811b016007820155610586565b01515f1960f88460031b161c191690558680806106b7565b82820151885560019097019660209283019201610695565b600783015f5260205f20601f830160051c810160208410610734575b601f830160051c82018110610729575050610553565b5f8155600101610713565b5080610713565b015190508580610510565b600685015f5260205f20905f5b601f1984168110610799575060019394959683601f19811610610781575b505050811b016006840155610527565b01515f1960f88460031b161c19169055858080610771565b9091602060018192858b015181550193019101610753565b600685015f5260205f20601f830160051c8101602084106107ee575b601f830160051c820181106107e35750506104f6565b5f81556001016107cd565b50806107cd565b0151905085806104b3565b600584015f5260205f20905f5b601f1984168110610853575060019394959683601f1981161061083b575b505050811b0160058301556104ca565b01515f1960f88460031b161c1916905585808061082b565b9091602060018192858b01518155019301910161080d565b600584015f5260205f20601f830160051c8101602084106108a8575b601f830160051c8201811061089d575050610499565b5f8155600101610887565b5080610887565b015190508580610456565b600483015f5260205f20905f5b601f198416811061090d575060019394959683601f198116106108f5575b505050811b01600482015561046d565b01515f1960f88460031b161c191690558580806108e5565b9091602060018192858b0151815501930191016108c7565b600483015f5260205f20601f830160051c810160208410610962575b601f830160051c8201811061095757505061043c565b5f8155600101610941565b5080610941565b0151905085806103f9565b600385015f5260205f20905f5b601f19841681106109c7575060019394959683601f198116106109af575b505050811b016003840155610410565b01515f1960f88460031b161c1916905585808061099f565b9091602060018192858b015181550193019101610981565b600385015f5260205f20601f830160051c810160208410610a1c575b601f830160051c82018110610a115750506103df565b5f81556001016109fb565b50806109fb565b01519050858061039c565b600284015f5260205f20905f5b601f1984168110610a81575060019394959683601f19811610610a69575b505050811b0160028301556103b3565b01515f1960f88460031b161c19169055858080610a59565b9091602060018192858b015181550193019101610a3b565b600284015f5260205f20601f830160051c810160208410610ad6575b601f830160051c82018110610acb575050610382565b5f8155600101610ab5565b5080610ab5565b634e487b7160e01b5f52601160045260245ffd5b346100f45760203660031901126100f4575f610180604051610b1281610ef4565b8281528260208201526060604082015260608082015260606080820152606060a0820152606060c0820152606060e08201528261010082015282610120820152826101408201528261016082015201526004355f52600160205260405f2060ff600b60405192610b8184610ef4565b8054845260018101546001600160a01b03166020850152610ba460028201610f31565b6040850152610bb560038201610f31565b6060850152610bc660048201610f31565b6080850152610bd760058201610f31565b60a0850152610be860068201610f31565b60c0850152610bf960078201610f31565b60e085015260088101546101008501526009810154610120850152600a8101546101408501520154818116151561016084015260081c1615156101808201526040518091602082528051602083015260018060a01b036020820151166040830152610180610cf2610c7b60408401516101a060608701526101c0860190610fd2565b610cdc610cc8610cb4610ca0606088015194601f1995868b83030160808c0152610fd2565b6080880151858a83030160a08b0152610fd2565b60a0870151848983030160c08a0152610fd2565b60c0860151838883030160e0890152610fd2565b9060e08501519086830301610100870152610fd2565b91610100810151610120850152610120810151610140850152610140810151610160850152610160810151151582850152015115156101a08301520390f35b346100f45760203660031901126100f4576004356002548110156100f45760209060025f527f405787fa12a823e0f2b7631cc41b3ba8828b3321ca811111fa75cd3aa3bb5ace0154604051908152f35b346100f45760203660031901126100f4576004355f52600160205260405f208054600160a01b600190036001830154169160028101610dbf90610f31565b610dcb60038301610f31565b91610dd860048201610f31565b92610de560058301610f31565b610df160068401610f31565b610dfd60078501610f31565b91600885015496600986015494600a87015496600b0154976040519b8c9b8c5260208c01526101a08060408d01528b01610e3691610fd2565b8a810360608c0152610e4791610fd2565b89810360808b0152610e5891610fd2565b88810360a08a0152610e6991610fd2565b87810360c0890152610e7a91610fd2565b86810360e0880152610e8b91610fd2565b9361010086015261012085015261014084015260ff8116151561016084015260081c60ff1615156101808301520390f35b90600182811c92168015610eea575b6020831014610ed657565b634e487b7160e01b5f52602260045260245ffd5b91607f1691610ecb565b6101a081019081106001600160401b0382111761066957604052565b90601f801991011681019081106001600160401b0382111761066957604052565b9060405191825f825492610f4484610ebc565b9081845260019485811690815f14610faf5750600114610f6f575b5050610f6d92500383610f10565b565b909391505f52602090815f20935f915b818310610f97575050610f6d93508201015f80610f5f565b85548884018501529485019487945091830191610f7f565b915050610f6d94506020925060ff191682840152151560051b8201015f80610f5f565b91908251928382525f5b848110610ffc575050825f602080949584010152601f8019910116010190565b602081830181015184830182015201610fdc565b8054821015610655575f5260205f2001905f90565b81601f820112156100f4578035906001600160401b0382116106695760405192611059601f8401601f191660200185610f10565b828452602083830101116100f457815f926020809301838601378301015290565b602090816040818301928281528551809452019301915f5b8281106110a0575050505090565b835185529381019392810192600101611092565b600435906001600160a01b03821682036100f45756fea26469706673582212209bd9ed6573691a31428282590128f875277ae97ad220b6ffcc971dd3a295187b64736f6c63430008140033",
  "immutableReferences": {},
  "source": "// SPDX-License-Identifier: MIT\npragma solidity >=0.4.22 <0.9.0;\n\ncontract EventManager {\n    struct Event {\n        uint256 id;\n        address organizer;\n        string title;\n        string date;\n        string venue;\n        string description;\n        string category;\n        string image;\n        uint256 ticketPrice;\n        uint256 totalTickets;\n        uint256 ticketsSold;\n        bool published;\n        bool ended;\n    }\n\n    uint256 public nextEventId;\n    mapping(uint256 => Event) public events;\n\n    uint256[] public allEvents;\n    mapping(address => uint256[]) public organizerEvents;\n\n    function createEvent(\n        string memory title,\n        string memory date,\n        string memory venue,\n        string memory description,\n        string memory category,\n        string memory image,\n        uint256 ticketPrice,\n        uint256 totalTickets\n    ) external {\n        uint256 eventId = nextEventId++;\n\n        events[eventId] = Event({\n            id: eventId,\n            organizer: msg.sender,\n            title: title,\n            date: date,\n            venue: venue,\n            description: description,\n            category: category,\n            image: image,\n            ticketPrice: ticketPrice,\n            totalTickets: totalTickets,\n            ticketsSold: 0,\n            published: false,\n            ended: false\n        });\n\n        organizerEvents[msg.sender].push(eventId);\n        allEvents.push(eventId);\n    }\n\n    function getOrganizerEvents(\n        address organizer\n    ) external view returns (uint256[] memory) {\n        return organizerEvents[organizer];\n    }\n    function getAllEvents() external view returns (uint256[] memory) {\n        return allEvents;\n    }\n\n    function getEvent(uint256 eventId) external view returns (Event memory) {\n        return events[eventId];\n    }\n}\n",
  "sourcePath": "/Users/thilan/web-dev/prestiqx/smart-contract/contracts/EventManager.sol",
  "compiler": {
    "name": "solc",
    "version": "0.8.20+commit.a1b79de6.Emscripten.clang"
  },
  "schemaVersion": "3.4.16",
  "updatedAt": "2026-01-15T06:49:04.632Z",
  "networkType": "ethereum",
  "devdoc": {
    "kind": "dev",
    "methods": {},
    "version": 1
  },
  "userdoc": {
    "kind": "user",
    "methods": {},
    "version": 1
  }
}